{
  "contractName": "VasuTokenSale",
  "abi": [
    {
      "constant": false,
      "inputs": [
        {
          "name": "_numberOfTokens",
          "type": "uint256"
        }
      ],
      "name": "buyTokens",
      "outputs": [],
      "payable": true,
      "type": "function"
    },
    {
      "constant": false,
      "inputs": [],
      "name": "endSale",
      "outputs": [],
      "payable": false,
      "type": "function"
    },
    {
      "constant": true,
      "inputs": [],
      "name": "tokensSold",
      "outputs": [
        {
          "name": "",
          "type": "uint256"
        }
      ],
      "payable": false,
      "type": "function"
    },
    {
      "constant": true,
      "inputs": [],
      "name": "tokenContract",
      "outputs": [
        {
          "name": "",
          "type": "address"
        }
      ],
      "payable": false,
      "type": "function"
    },
    {
      "constant": true,
      "inputs": [],
      "name": "tokenPrice",
      "outputs": [
        {
          "name": "",
          "type": "uint256"
        }
      ],
      "payable": false,
      "type": "function"
    },
    {
      "constant": true,
      "inputs": [],
      "name": "admin",
      "outputs": [
        {
          "name": "",
          "type": "address"
        }
      ],
      "payable": false,
      "type": "function"
    },
    {
      "inputs": [
        {
          "name": "_tokenContract",
          "type": "address"
        },
        {
          "name": "_tokenPrice",
          "type": "uint256"
        }
      ],
      "type": "constructor"
    },
    {
      "anonymous": false,
      "inputs": [
        {
          "indexed": true,
          "name": "_buyer",
          "type": "address"
        },
        {
          "indexed": false,
          "name": "_amount",
          "type": "uint256"
        }
      ],
      "name": "Sell",
      "type": "event"
    }
  ],
  "bytecode": "0x6060604052604051604080610788833981016040528080519060200190919080519060200190919050505b33600060006101000a81548173ffffffffffffffffffffffffffffffffffffffff0219169083021790555081600160006101000a81548173ffffffffffffffffffffffffffffffffffffffff02191690830217905550806002600050819055505b50506106ed8061009b6000396000f360606040523615610074576000357c0100000000000000000000000000000000000000000000000000000000900480633610724e14610079578063380d831b14610091578063518ab2a8146100a557806355a373d6146100cd5780637ff9b5961461010b578063f851a4401461013357610074565b610002565b61008f6004808035906020019091905050610171565b005b34610002576100a36004805050610384565b005b34610002576100b76004805050610645565b6040518082815260200191505060405180910390f35b34610002576100df600480505061064e565b604051808273ffffffffffffffffffffffffffffffffffffffff16815260200191505060405180910390f35b346100025761011d6004805050610674565b6040518082815260200191505060405180910390f35b3461000257610145600480505061067d565b604051808273ffffffffffffffffffffffffffffffffffffffff16815260200191505060405180910390f35b610180816002600050546106a3565b3414151561018d57610002565b80600160009054906101000a900473ffffffffffffffffffffffffffffffffffffffff1673ffffffffffffffffffffffffffffffffffffffff166370a0823130600060405160200152604051827c0100000000000000000000000000000000000000000000000000000000028152600401808273ffffffffffffffffffffffffffffffffffffffff168152602001915050602060405180830381600087803b156100025760325a03f1156100025750505060405180519060200150101561025357610002565b600160009054906101000a900473ffffffffffffffffffffffffffffffffffffffff1673ffffffffffffffffffffffffffffffffffffffff1663a9059cbb3383600060405160200152604051837c0100000000000000000000000000000000000000000000000000000000028152600401808373ffffffffffffffffffffffffffffffffffffffff16815260200182815260200192505050602060405180830381600087803b156100025760325a03f1156100025750505060405180519060200150151561032057610002565b8060036000828282505401925050819055503373ffffffffffffffffffffffffffffffffffffffff167f5e5e995ce3133561afceaa51a9a154d5db228cd7525d34df5185582c18d3df09826040518082815260200191505060405180910390a25b50565b6000600060009054906101000a900473ffffffffffffffffffffffffffffffffffffffff1673ffffffffffffffffffffffffffffffffffffffff163373ffffffffffffffffffffffffffffffffffffffff161415156103e257610002565b600160009054906101000a900473ffffffffffffffffffffffffffffffffffffffff1673ffffffffffffffffffffffffffffffffffffffff166370a0823130600060405160200152604051827c0100000000000000000000000000000000000000000000000000000000028152600401808273ffffffffffffffffffffffffffffffffffffffff168152602001915050602060405180830381600087803b156100025760325a03f11561000257505050604051805190602001509050600081111561059757600160009054906101000a900473ffffffffffffffffffffffffffffffffffffffff1673ffffffffffffffffffffffffffffffffffffffff1663a9059cbb600060009054906101000a900473ffffffffffffffffffffffffffffffffffffffff1683600060405160200152604051837c0100000000000000000000000000000000000000000000000000000000028152600401808373ffffffffffffffffffffffffffffffffffffffff16815260200182815260200192505050602060405180830381600087803b156100025760325a03f1156100025750505060405180519060200150151561059657610002565b5b600060009054906101000a900473ffffffffffffffffffffffffffffffffffffffff1673ffffffffffffffffffffffffffffffffffffffff167f5e5e995ce3133561afceaa51a9a154d5db228cd7525d34df5185582c18d3df09826040518082815260200191505060405180910390a2600060009054906101000a900473ffffffffffffffffffffffffffffffffffffffff1673ffffffffffffffffffffffffffffffffffffffff16ff5b50565b60036000505481565b600160009054906101000a900473ffffffffffffffffffffffffffffffffffffffff1681565b60026000505481565b600060009054906101000a900473ffffffffffffffffffffffffffffffffffffffff1681565b600060008314806106b45750600082145b156106c257600090506106e7565b81830290508050818382811561000257041415156106df57610002565b8090506106e7565b9291505056",
  "compiler": {
    "name": "solc",
    "version": "0.4.2+commit.af6afb04.Emscripten.clang"
  },
  "schemaVersion": "3.4.16",
  "updatedAt": "2025-02-26T15:43:08.601Z",
  "networkType": "ethereum"
}